:100000000C9434000C9449000C9449000C94490061
:100010000C9449000C9449000C9449000C9449003C
:100020000C9449000C9449000C9449000C9449002C
:100030000C9449000C9449000C9449000C9449001C
:100040000C9449000C9449000C9449000C9449000C
:100050000C9449000C9449000C9449000C944900FC
:100060000C9449000C94490011241FBECFEFD8E036
:10007000DEBFCDBF11E0A0E0B1E0E2E7F2E002C0F8
:1000800005900D92A834B107D9F70E9418010C947D
:1000900037010C9400009093C5008093C40088E061
:1000A0008093C10086E08093C20008959091C000C3
:1000B00095FFFCCF8093C6000895CF93DF93EC01AA
:1000C0008991811103C0DF91CF9108950E9456005C
:1000D000F7CF1092B90088E48093B80084E0809351
:1000E000BC00089594EA9093BC009091BC0097FFE7
:1000F000FCCF880F8093BB0084E88093BC00809184
:10010000BC0087FFFCCF08958093BB0084E88093F8
:10011000BC008091BC0087FFFCCF089584E98093E8
:10012000BC008FE99FE00197F1F700C0000008953F
:10013000CF9320E1829FC0011124C82F6111C160BB
:1001400087E20E9472008C2F8C600E9484008FECEA
:1001500097E00197F1F700C000008C2F88600E94A3
:1001600084000E948E0087EC90E00197F1F700C0B8
:100170000000CF910895CF93C82F60E082958F70D3
:100180000E94980060E08C2F8F70CF910C949800A3
:10019000CF93C82F61E082958F700E94980061E034
:1001A0008C2F8F70CF910C9498002FEF80E792E006
:1001B000215080409040E1F700C0000083E30E949E
:1001C000BB008FE19EE40197F1F700C0000082E3DD
:1001D0000E94BB008FE19EE40197F1F700C0000090
:1001E00088E20E94BB008CE00E94BB0086E00E9477
:1001F000BB0081E00E94BB008FE19EE40197F1F714
:1002000000C000000895813029F080E4860F8068E6
:100210000C94BB0080E0FACFCF93DF93EC0189917F
:10022000811103C0DF91CF9108950E94C800F7CFDC
:1002300087E090E00E944B0080E091E00E945D002A
:100240000E9469000E94D50080E80E94BB008FE1F7
:1002500091E00E940C0180EC0E94BB0085E291E0DD
:100260000E940C018AE291E00E945D00FFCFF894A9
:02027000FFCFBE
:100272005374617274696E67204C4344202B20557D
:10028200534152542064656D6F2E2E2E0D0A004884
:10029200454C4C4F004D41524B0048454C4C4F2071
:1002A2004D41524B20646973706C61796564206FB3
:0802B2006E204C43440D0A00CC
:00000001FF
